{
  "contractName": "EthVoting",
  "abi": [
    {
      "anonymous": false,
      "inputs": [
        {
          "indexed": true,
          "internalType": "string",
          "name": "eventType",
          "type": "string"
        },
        {
          "indexed": false,
          "internalType": "uint256",
          "name": "_proposalId",
          "type": "uint256"
        },
        {
          "indexed": false,
          "internalType": "uint256",
          "name": "_limitTime",
          "type": "uint256"
        },
        {
          "indexed": false,
          "internalType": "bytes32",
          "name": "PHash",
          "type": "bytes32"
        }
      ],
      "name": "ProposeEvt",
      "type": "event"
    },
    {
      "anonymous": false,
      "inputs": [
        {
          "indexed": false,
          "internalType": "string",
          "name": "usename",
          "type": "string"
        },
        {
          "indexed": false,
          "internalType": "address",
          "name": "userAddress",
          "type": "address"
        },
        {
          "indexed": false,
          "internalType": "uint256",
          "name": "registtime",
          "type": "uint256"
        },
        {
          "indexed": false,
          "internalType": "uint256",
          "name": "userID",
          "type": "uint256"
        }
      ],
      "name": "Regis",
      "type": "event"
    },
    {
      "anonymous": false,
      "inputs": [
        {
          "indexed": true,
          "internalType": "string",
          "name": "eventType",
          "type": "string"
        },
        {
          "indexed": false,
          "internalType": "address",
          "name": "_voter",
          "type": "address"
        },
        {
          "indexed": false,
          "internalType": "uint256",
          "name": "timestamp",
          "type": "uint256"
        }
      ],
      "name": "VoteEvt",
      "type": "event"
    },
    {
      "inputs": [
        {
          "internalType": "uint256",
          "name": "",
          "type": "uint256"
        }
      ],
      "name": "proposals",
      "outputs": [
        {
          "internalType": "string",
          "name": "pName",
          "type": "string"
        },
        {
          "internalType": "string",
          "name": "pCtx",
          "type": "string"
        },
        {
          "internalType": "address",
          "name": "chairperson",
          "type": "address"
        },
        {
          "internalType": "uint256",
          "name": "voteCount",
          "type": "uint256"
        },
        {
          "internalType": "bool",
          "name": "initialized",
          "type": "bool"
        },
        {
          "internalType": "uint256",
          "name": "limitTime",
          "type": "uint256"
        }
      ],
      "stateMutability": "view",
      "type": "function"
    },
    {
      "inputs": [
        {
          "internalType": "uint256",
          "name": "",
          "type": "uint256"
        }
      ],
      "name": "registuser",
      "outputs": [
        {
          "internalType": "string",
          "name": "usename",
          "type": "string"
        },
        {
          "internalType": "address",
          "name": "userAddress",
          "type": "address"
        },
        {
          "internalType": "uint256",
          "name": "registtime",
          "type": "uint256"
        }
      ],
      "stateMutability": "view",
      "type": "function"
    },
    {
      "inputs": [
        {
          "internalType": "string",
          "name": "_pName",
          "type": "string"
        },
        {
          "internalType": "string",
          "name": "_pCtx",
          "type": "string"
        },
        {
          "internalType": "uint256",
          "name": "_limitTime",
          "type": "uint256"
        }
      ],
      "name": "createProposal",
      "outputs": [
        {
          "internalType": "uint256",
          "name": "",
          "type": "uint256"
        }
      ],
      "stateMutability": "nonpayable",
      "type": "function"
    },
    {
      "inputs": [],
      "name": "getProposeEvt",
      "outputs": [
        {
          "internalType": "uint256",
          "name": "_pId",
          "type": "uint256"
        }
      ],
      "stateMutability": "view",
      "type": "function"
    },
    {
      "inputs": [
        {
          "internalType": "uint256",
          "name": "_pId",
          "type": "uint256"
        },
        {
          "internalType": "bytes32",
          "name": "_PHash",
          "type": "bytes32"
        },
        {
          "internalType": "bytes",
          "name": "_sigs",
          "type": "bytes"
        }
      ],
      "name": "doVoting",
      "outputs": [],
      "stateMutability": "nonpayable",
      "type": "function"
    },
    {
      "inputs": [
        {
          "internalType": "uint256",
          "name": "_pId",
          "type": "uint256"
        },
        {
          "internalType": "address",
          "name": "voterAddr",
          "type": "address"
        }
      ],
      "name": "queryVoting",
      "outputs": [
        {
          "internalType": "uint256",
          "name": "",
          "type": "uint256"
        }
      ],
      "stateMutability": "view",
      "type": "function"
    },
    {
      "inputs": [],
      "name": "getBlockTime",
      "outputs": [
        {
          "internalType": "uint256",
          "name": "t",
          "type": "uint256"
        }
      ],
      "stateMutability": "view",
      "type": "function"
    },
    {
      "inputs": [
        {
          "internalType": "uint256",
          "name": "_pId",
          "type": "uint256"
        }
      ],
      "name": "getProposalName",
      "outputs": [
        {
          "internalType": "string",
          "name": "s",
          "type": "string"
        }
      ],
      "stateMutability": "view",
      "type": "function"
    },
    {
      "inputs": [
        {
          "internalType": "uint256",
          "name": "_pId",
          "type": "uint256"
        }
      ],
      "name": "getProposalCtx",
      "outputs": [
        {
          "internalType": "string",
          "name": "s",
          "type": "string"
        }
      ],
      "stateMutability": "view",
      "type": "function"
    },
    {
      "inputs": [
        {
          "internalType": "uint256",
          "name": "_pId",
          "type": "uint256"
        }
      ],
      "name": "getProposalVCnt",
      "outputs": [
        {
          "internalType": "uint256",
          "name": "v",
          "type": "uint256"
        }
      ],
      "stateMutability": "view",
      "type": "function"
    },
    {
      "inputs": [
        {
          "internalType": "uint256",
          "name": "_pId",
          "type": "uint256"
        }
      ],
      "name": "getProposalLimit",
      "outputs": [
        {
          "internalType": "uint256",
          "name": "t",
          "type": "uint256"
        }
      ],
      "stateMutability": "view",
      "type": "function"
    },
    {
      "inputs": [
        {
          "internalType": "string",
          "name": "_name",
          "type": "string"
        },
        {
          "internalType": "address",
          "name": "_userAddress",
          "type": "address"
        }
      ],
      "name": "toRegist",
      "outputs": [],
      "stateMutability": "nonpayable",
      "type": "function"
    },
    {
      "inputs": [
        {
          "internalType": "uint256",
          "name": "_pId",
          "type": "uint256"
        },
        {
          "internalType": "string",
          "name": "_pName",
          "type": "string"
        },
        {
          "internalType": "string",
          "name": "_pCtx",
          "type": "string"
        }
      ],
      "name": "getTxHash",
      "outputs": [
        {
          "internalType": "bytes32",
          "name": "",
          "type": "bytes32"
        }
      ],
      "stateMutability": "view",
      "type": "function"
    },
    {
      "inputs": [
        {
          "internalType": "uint256",
          "name": "_pId",
          "type": "uint256"
        }
      ],
      "name": "giveupProsal",
      "outputs": [],
      "stateMutability": "nonpayable",
      "type": "function"
    }
  ],
  "bytecode": "0x60806040524260055534801561001457600080fd5b5061228f806100246000396000f3fe608060405234801561001057600080fd5b50600436106100ea5760003560e01c80633fb430641161008c5780636f2a064c116100665780636f2a064c1461029a57806387ceff09146102ca578063bb53c41d146102e8578063eb7aa45114610304576100ea565b80633fb4306414610230578063429b92bf1461024c5780636e15b3821461027c576100ea565b80632cd18466116100c85780632cd184661461018457806333311aee146101a05780633c795afc146101d05780633c81a9bd14610200576100ea565b8063013cf08b146100ef5780630ce0ebf414610124578063101778d414610154575b600080fd5b6101096004803603810190610104919061154b565b610336565b60405161011b96959493929190611adc565b60405180910390f35b61013e600480360381019061013991906114cc565b6104af565b60405161014b9190611c4b565b60405180910390f35b61016e6004803603810190610169919061154b565b6105de565b60405161017b9190611c4b565b60405180910390f35b61019e600480360381019061019991906115b0565b6105fe565b005b6101ba60048036038101906101b5919061154b565b6108e3565b6040516101c79190611a30565b60405180910390f35b6101ea60048036038101906101e59190611574565b61098b565b6040516101f79190611c4b565b60405180910390f35b61021a60048036038101906102159190611617565b610a58565b60405161022791906119d0565b60405180910390f35b61024a6004803603810190610245919061154b565b610a90565b005b6102666004803603810190610261919061154b565b610c80565b6040516102739190611a30565b60405180910390f35b610284610d28565b6040516102919190611c4b565b60405180910390f35b6102b460048036038101906102af919061154b565b610d32565b6040516102c19190611c4b565b60405180910390f35b6102d2610d52565b6040516102df9190611c4b565b60405180910390f35b61030260048036038101906102fd9190611478565b610d5a565b005b61031e6004803603810190610319919061154b565b610f2e565b60405161032d93929190611a52565b60405180910390f35b600460205280600052604060002060009150905080600001805461035990611e76565b80601f016020809104026020016040519081016040528092919081815260200182805461038590611e76565b80156103d25780601f106103a7576101008083540402835291602001916103d2565b820191906000526020600020905b8154815290600101906020018083116103b557829003601f168201915b5050505050908060010180546103e790611e76565b80601f016020809104026020016040519081016040528092919081815260200182805461041390611e76565b80156104605780601f1061043557610100808354040283529160200191610460565b820191906000526020600020905b81548152906001019060200180831161044357829003601f168201915b5050505050908060020160009054906101000a900473ffffffffffffffffffffffffffffffffffffffff16908060030154908060040160009054906101000a900460ff16908060050154905086565b6000806004600060055481526020019081526020016000209050848160000190805190602001906104e19291906112c6565b50838160010190805190602001906104fa9291906112c6565b50338160020160006101000a81548173ffffffffffffffffffffffffffffffffffffffff021916908373ffffffffffffffffffffffffffffffffffffffff16021790555060018160040160006101000a81548160ff02191690831515021790555082816005018190555060008160030181905550600061057d6005548787610a58565b905060405161058b90611992565b60405180910390207f2399cf8dc198345b7180c41459d6b39bef1664d79b2cc7be6c0552619442b83760055486846040516105c893929190611c66565b60405180910390a2600554925050509392505050565b600060046000838152602001908152602001600020600301549050919050565b610609838284611010565b610648576040517f08c379a000000000000000000000000000000000000000000000000000000000815260040161063f90611b8b565b60405180910390fd5b600015156004600085815260200190815260200160002060040160009054906101000a900460ff16151514156106b3576040517f08c379a00000000000000000000000000000000000000000000000000000000081526004016106aa90611beb565b60405180910390fd5b600042905080600460006005548152602001908152602001600020600501541015610713576040517f08c379a000000000000000000000000000000000000000000000000000000000815260040161070a90611bcb565b60405180910390fd5b6001151560046000600554815260200190815260200160002060060160003373ffffffffffffffffffffffffffffffffffffffff1673ffffffffffffffffffffffffffffffffffffffff16815260200190815260200160002060010160009054906101000a900460ff16151514156107c0576040517f08c379a00000000000000000000000000000000000000000000000000000000081526004016107b790611c2b565b60405180910390fd5b600060405180604001604052804281526020016001151581525090508060046000600554815260200190815260200160002060060160003373ffffffffffffffffffffffffffffffffffffffff1673ffffffffffffffffffffffffffffffffffffffff1681526020019081526020016000206000820151816000015560208201518160010160006101000a81548160ff021916908315150217905550905050600160046000600554815260200190815260200160002060030160008282546108889190611d4b565b9250508190555060405161089b90611957565b60405180910390207f6e1d6794e13b69f31305f22ea91ab03481b376fdf800c35bb36b6b582c25f19333426040516108d49291906119a7565b60405180910390a25050505050565b606060046000838152602001908152602001600020600101805461090690611e76565b80601f016020809104026020016040519081016040528092919081815260200182805461093290611e76565b801561097f5780601f106109545761010080835404028352916020019161097f565b820191906000526020600020905b81548152906001019060200180831161096257829003601f168201915b50505050509050919050565b60008015156004600085815260200190815260200160002060040160009054906101000a900460ff16151514156109f7576040517f08c379a00000000000000000000000000000000000000000000000000000000081526004016109ee90611beb565b60405180910390fd5b60046000600554815260200190815260200160002060060160008373ffffffffffffffffffffffffffffffffffffffff1673ffffffffffffffffffffffffffffffffffffffff16815260200190815260200160002060000154905092915050565b600030848484604051602001610a719493929190611911565b6040516020818303038152906040528051906020012090509392505050565b3373ffffffffffffffffffffffffffffffffffffffff166004600083815260200190815260200160002060020160009054906101000a900473ffffffffffffffffffffffffffffffffffffffff1673ffffffffffffffffffffffffffffffffffffffff1614610afe57600080fd5b60006040518060400160405280600481526020017f6e756c6c00000000000000000000000000000000000000000000000000000000815250600460008481526020019081526020016000206000019080519060200190610b5f9291906112c6565b506040518060400160405280600481526020017f6e756c6c00000000000000000000000000000000000000000000000000000000815250600460008481526020019081526020016000206001019080519060200190610bbf9291906112c6565b50806004600084815260200190815260200160002060020160006101000a81548173ffffffffffffffffffffffffffffffffffffffff021916908373ffffffffffffffffffffffffffffffffffffffff1602179055506000600460008481526020019081526020016000206003018190555060006004600084815260200190815260200160002060040160006101000a81548160ff021916908315150217905550600060046000848152602001908152602001600020600501819055505050565b6060600460008381526020019081526020016000206000018054610ca390611e76565b80601f0160208091040260200160405190810160405280929190818152602001828054610ccf90611e76565b8015610d1c5780601f10610cf157610100808354040283529160200191610d1c565b820191906000526020600020905b815481529060010190602001808311610cff57829003601f168201915b50505050509050919050565b6000600554905090565b600060046000838152602001908152602001600020600501549050919050565b600042905090565b3390506000429050600060405180606001604052808581526020018473ffffffffffffffffffffffffffffffffffffffff1681526020018381525090806001815401808255809150506001900390600052602060002090600302016000909190919091506000820151816000019080519060200190610dda9291906112c6565b5060208201518160010160006101000a81548173ffffffffffffffffffffffffffffffffffffffff021916908373ffffffffffffffffffffffffffffffffffffffff16021790555060408201518160020155505060006001600080549050610e429190611da1565b9050826001600083815260200190815260200160002060006101000a81548173ffffffffffffffffffffffffffffffffffffffff021916908373ffffffffffffffffffffffffffffffffffffffff160217905550600260008473ffffffffffffffffffffffffffffffffffffffff1673ffffffffffffffffffffffffffffffffffffffff1681526020019081526020016000206000815480929190610ee690611ed9565b91905055507ff1006785f7307ec7e189235798592bde5108e289d2b26583fc4aed485d3b3ebc84848484604051610f209493929190611a90565b60405180910390a150505050565b60008181548110610f3e57600080fd5b9060005260206000209060030201600091509050806000018054610f6190611e76565b80601f0160208091040260200160405190810160405280929190818152602001828054610f8d90611e76565b8015610fda5780601f10610faf57610100808354040283529160200191610fda565b820191906000526020600020905b815481529060010190602001808311610fbd57829003601f168201915b5050505050908060010160009054906101000a900473ffffffffffffffffffffffffffffffffffffffff16908060020154905083565b60008061101c836110a9565b905060005b845181101561109b57600061103f86846110d990919063ffffffff16565b905060003373ffffffffffffffffffffffffffffffffffffffff168273ffffffffffffffffffffffffffffffffffffffff16149050806110865760009450505050506110a2565b5050808061109390611ed9565b915050611021565b5060019150505b9392505050565b6000816040516020016110bc919061196c565b604051602081830303815290604052805190602001209050919050565b6000604182511461111f576040517f08c379a000000000000000000000000000000000000000000000000000000000815260040161111690611b6b565b60405180910390fd5b60008060006020850151925060408501519150606085015160001a90507f7fffffffffffffffffffffffffffffff5d576e7357a4501ddfe92f46681b20a08260001c11156111a2576040517f08c379a000000000000000000000000000000000000000000000000000000000815260040161119990611bab565b60405180910390fd5b601b8160ff1614806111b75750601c8160ff16145b6111f6576040517f08c379a00000000000000000000000000000000000000000000000000000000081526004016111ed90611c0b565b60405180910390fd5b60006001878386866040516000815260200160405260405161121b94939291906119eb565b6020604051602081039080840390855afa15801561123d573d6000803e3d6000fd5b505050602060405103519050600073ffffffffffffffffffffffffffffffffffffffff168173ffffffffffffffffffffffffffffffffffffffff1614156112b9576040517f08c379a00000000000000000000000000000000000000000000000000000000081526004016112b090611b4b565b60405180910390fd5b8094505050505092915050565b8280546112d290611e76565b90600052602060002090601f0160209004810192826112f4576000855561133b565b82601f1061130d57805160ff191683800117855561133b565b8280016001018555821561133b579182015b8281111561133a57825182559160200191906001019061131f565b5b509050611348919061134c565b5090565b5b8082111561136557600081600090555060010161134d565b5090565b600061137c61137784611cc2565b611c9d565b90508281526020810184848401111561139457600080fd5b61139f848285611e34565b509392505050565b60006113ba6113b584611cf3565b611c9d565b9050828152602081018484840111156113d257600080fd5b6113dd848285611e34565b509392505050565b6000813590506113f481612214565b92915050565b6000813590506114098161222b565b92915050565b600082601f83011261142057600080fd5b8135611430848260208601611369565b91505092915050565b600082601f83011261144a57600080fd5b813561145a8482602086016113a7565b91505092915050565b60008135905061147281612242565b92915050565b6000806040838503121561148b57600080fd5b600083013567ffffffffffffffff8111156114a557600080fd5b6114b185828601611439565b92505060206114c2858286016113e5565b9150509250929050565b6000806000606084860312156114e157600080fd5b600084013567ffffffffffffffff8111156114fb57600080fd5b61150786828701611439565b935050602084013567ffffffffffffffff81111561152457600080fd5b61153086828701611439565b925050604061154186828701611463565b9150509250925092565b60006020828403121561155d57600080fd5b600061156b84828501611463565b91505092915050565b6000806040838503121561158757600080fd5b600061159585828601611463565b92505060206115a6858286016113e5565b9150509250929050565b6000806000606084860312156115c557600080fd5b60006115d386828701611463565b93505060206115e4868287016113fa565b925050604084013567ffffffffffffffff81111561160157600080fd5b61160d8682870161140f565b9150509250925092565b60008060006060848603121561162c57600080fd5b600061163a86828701611463565b935050602084013567ffffffffffffffff81111561165757600080fd5b61166386828701611439565b925050604084013567ffffffffffffffff81111561168057600080fd5b61168c86828701611439565b9150509250925092565b61169f81611dd5565b82525050565b6116b66116b182611dd5565b611f22565b82525050565b6116c581611de7565b82525050565b6116d481611df3565b82525050565b6116eb6116e682611df3565b611f34565b82525050565b60006116fc82611d24565b6117068185611d2f565b9350611716818560208601611e43565b61171f81611fe7565b840191505092915050565b600061173582611d24565b61173f8185611d40565b935061174f818560208601611e43565b80840191505092915050565b6000611768601883611d2f565b915061177382612005565b602082019050919050565b600061178b600483611d40565b91506117968261202e565b600482019050919050565b60006117ae601f83611d2f565b91506117b982612057565b602082019050919050565b60006117d1601c83611d40565b91506117dc82612080565b601c82019050919050565b60006117f4600b83611d2f565b91506117ff826120a9565b602082019050919050565b6000611817602283611d2f565b9150611822826120d2565b604082019050919050565b600061183a601283611d2f565b915061184582612121565b602082019050919050565b600061185d601283611d2f565b91506118688261214a565b602082019050919050565b6000611880602283611d2f565b915061188b82612173565b604082019050919050565b60006118a3600783611d40565b91506118ae826121c2565b600782019050919050565b60006118c6600c83611d2f565b91506118d1826121eb565b602082019050919050565b6118e581611e1d565b82525050565b6118fc6118f782611e1d565b611f50565b82525050565b61190b81611e27565b82525050565b600061191d82876116a5565b60148201915061192d82866118eb565b60208201915061193d828561172a565b9150611949828461172a565b915081905095945050505050565b60006119628261177e565b9150819050919050565b6000611977826117c4565b915061198382846116da565b60208201915081905092915050565b600061199d82611896565b9150819050919050565b60006040820190506119bc6000830185611696565b6119c960208301846118dc565b9392505050565b60006020820190506119e560008301846116cb565b92915050565b6000608082019050611a0060008301876116cb565b611a0d6020830186611902565b611a1a60408301856116cb565b611a2760608301846116cb565b95945050505050565b60006020820190508181036000830152611a4a81846116f1565b905092915050565b60006060820190508181036000830152611a6c81866116f1565b9050611a7b6020830185611696565b611a8860408301846118dc565b949350505050565b60006080820190508181036000830152611aaa81876116f1565b9050611ab96020830186611696565b611ac660408301856118dc565b611ad360608301846118dc565b95945050505050565b600060c0820190508181036000830152611af681896116f1565b90508181036020830152611b0a81886116f1565b9050611b196040830187611696565b611b2660608301866118dc565b611b3360808301856116bc565b611b4060a08301846118dc565b979650505050505050565b60006020820190508181036000830152611b648161175b565b9050919050565b60006020820190508181036000830152611b84816117a1565b9050919050565b60006020820190508181036000830152611ba4816117e7565b9050919050565b60006020820190508181036000830152611bc48161180a565b9050919050565b60006020820190508181036000830152611be48161182d565b9050919050565b60006020820190508181036000830152611c0481611850565b9050919050565b60006020820190508181036000830152611c2481611873565b9050919050565b60006020820190508181036000830152611c44816118b9565b9050919050565b6000602082019050611c6060008301846118dc565b92915050565b6000606082019050611c7b60008301866118dc565b611c8860208301856118dc565b611c9560408301846116cb565b949350505050565b6000611ca7611cb8565b9050611cb38282611ea8565b919050565b6000604051905090565b600067ffffffffffffffff821115611cdd57611cdc611fb8565b5b611ce682611fe7565b9050602081019050919050565b600067ffffffffffffffff821115611d0e57611d0d611fb8565b5b611d1782611fe7565b9050602081019050919050565b600081519050919050565b600082825260208201905092915050565b600081905092915050565b6000611d5682611e1d565b9150611d6183611e1d565b9250827fffffffffffffffffffffffffffffffffffffffffffffffffffffffffffffffff03821115611d9657611d95611f5a565b5b828201905092915050565b6000611dac82611e1d565b9150611db783611e1d565b925082821015611dca57611dc9611f5a565b5b828203905092915050565b6000611de082611dfd565b9050919050565b60008115159050919050565b6000819050919050565b600073ffffffffffffffffffffffffffffffffffffffff82169050919050565b6000819050919050565b600060ff82169050919050565b82818337600083830152505050565b60005b83811015611e61578082015181840152602081019050611e46565b83811115611e70576000848401525b50505050565b60006002820490506001821680611e8e57607f821691505b60208210811415611ea257611ea1611f89565b5b50919050565b611eb182611fe7565b810181811067ffffffffffffffff82111715611ed057611ecf611fb8565b5b80604052505050565b6000611ee482611e1d565b91507fffffffffffffffffffffffffffffffffffffffffffffffffffffffffffffffff821415611f1757611f16611f5a565b5b600182019050919050565b6000611f2d82611f3e565b9050919050565b6000819050919050565b6000611f4982611ff8565b9050919050565b6000819050919050565b7f4e487b7100000000000000000000000000000000000000000000000000000000600052601160045260246000fd5b7f4e487b7100000000000000000000000000000000000000000000000000000000600052602260045260246000fd5b7f4e487b7100000000000000000000000000000000000000000000000000000000600052604160045260246000fd5b6000601f19601f8301169050919050565b60008160601b9050919050565b7f45434453413a20696e76616c6964207369676e61747572650000000000000000600082015250565b7f766f746500000000000000000000000000000000000000000000000000000000600082015250565b7f45434453413a20696e76616c6964207369676e6174757265206c656e67746800600082015250565b7f19457468657265756d205369676e6564204d6573736167653a0a333200000000600082015250565b7f696e76616c696420736967000000000000000000000000000000000000000000600082015250565b7f45434453413a20696e76616c6964207369676e6174757265202773272076616c60008201527f7565000000000000000000000000000000000000000000000000000000000000602082015250565b7f65786365656420766f74696e672074696d650000000000000000000000000000600082015250565b7f70726f706f73616c206e6f742065786973740000000000000000000000000000600082015250565b7f45434453413a20696e76616c6964207369676e6174757265202776272076616c60008201527f7565000000000000000000000000000000000000000000000000000000000000602082015250565b7f70726f706f736500000000000000000000000000000000000000000000000000600082015250565b7f616c726561647920766f74650000000000000000000000000000000000000000600082015250565b61221d81611dd5565b811461222857600080fd5b50565b61223481611df3565b811461223f57600080fd5b50565b61224b81611e1d565b811461225657600080fd5b5056fea2646970667358221220f71c9abc92b089e4310004078327d46507a99c9dd9aae0b7731570222816579664736f6c63430008040033",
  "immutableReferences": {},
  "source": "// SPDX-License-Identifier: MIT\r\npragma solidity ^0.8.0;\r\nimport \"./ECDSA.sol\";\r\ncontract EthVoting {\r\n     using ECDSA for bytes32;\r\n    //\r\n    struct RegistUser{\r\n        string usename;\r\n        address userAddress;\r\n        uint registtime;\r\n    }\r\n    RegistUser[] public registuser;\r\n    mapping (uint => address)  RegistUserList;\r\n    mapping (address => uint) RegistCount;\r\n    event Regis(string usename,address userAddress,uint registtime,uint userID);\r\n\r\n    //\r\n    struct Voter {\r\n        uint voteTimeStamp; //\r\n        bool initialized;   //\r\n    }\r\n    \r\n   \r\n    //\r\n    struct Proposal {\r\n        string pName;        //\r\n    \tstring pCtx;         //\r\n    \taddress chairperson; //\r\n        uint voteCount;      //\r\n        bool initialized;    //\r\n        uint limitTime;      //\r\n    \tmapping(address => Voter) voters; //\r\n    }\r\n    uint numRequests;\r\n    \r\n    //\r\n    mapping(uint => Proposal) public proposals;\r\n    \r\n    //\r\n    event VoteEvt(string indexed eventType, address _voter, uint timestamp);\r\n    \r\n    //\r\n    event ProposeEvt (string indexed eventType, uint _proposalId, uint _limitTime,bytes32 PHash) ;\r\n    \r\n    //\r\n     uint pId = block.timestamp; \r\n    function createProposal(string memory _pName, string memory _pCtx, uint _limitTime) public returns (uint){\r\n      //\r\n      Proposal storage p = proposals[pId];\r\n      p.pName=_pName;\r\n      p.pCtx=_pCtx;\r\n      p.chairperson=msg.sender;\r\n      p.initialized=true;\r\n      p.limitTime= _limitTime;\r\n      p.voteCount=0;\r\n      bytes32 PHash=getTxHash(pId,_pName,_pCtx);\r\n      emit ProposeEvt(\"propose\", pId, _limitTime,PHash);\r\n      return pId;\r\n    }\r\n    //pid\r\n    function getProposeEvt() external view returns(uint _pId){\r\n        return pId;\r\n    }\r\n    \r\n    //\r\n    function doVoting(uint _pId,bytes32 _PHash,bytes memory _sigs) public {\r\n        //\r\n      require(_checkSigs(_pId, _sigs, _PHash), \"invalid sig\");\r\n      //\r\n      if (proposals[_pId].initialized == false)\r\n        revert(\"proposal not exist\");\r\n        \r\n      uint currentTime = block.timestamp;\r\n      \r\n      //\r\n      if (proposals[pId].limitTime < currentTime)\r\n        revert(\"exceed voting time\");\r\n      \r\n      //\r\n      if (proposals[pId].voters[msg.sender].initialized == true)\r\n       revert(\"already vote\");\r\n      \r\n      //\r\n      Voter memory voter = Voter({\r\n         voteTimeStamp: block.timestamp,\r\n         initialized: true\r\n      });\r\n    \r\n      //\r\n      proposals[pId].voters[msg.sender] = voter;\r\n      proposals[pId].voteCount+=1;\r\n      \r\n      emit VoteEvt(\"vote\", msg.sender, block.timestamp);\r\n    }\t\r\n    \r\n    //\r\n    function queryVoting(uint _pId, address voterAddr) public view returns (uint){\r\n      //\r\n      if (proposals[_pId].initialized == false)\r\n        revert(\"proposal not exist\");\r\n      \r\n      //\r\n      return proposals[pId].voters[voterAddr].voteTimeStamp;\r\n    }\t\r\n    \r\n    //\r\n    function getBlockTime() public view returns (uint t) { \r\n     t = block.timestamp;\r\n    }\r\n    \r\n    //\r\n    function getProposalName(uint _pId) public view returns (string memory s) { \r\n     s = proposals[_pId].pName;\r\n    } \t\r\n    \r\n    //\r\n    function getProposalCtx(uint _pId) public view returns (string memory s) { \r\n     s = proposals[_pId].pCtx;\r\n    }\r\n    \r\n    //\r\n    function getProposalVCnt(uint _pId) public view returns (uint v) { \r\n     v = proposals[_pId].voteCount;\r\n    }\r\n    \r\n    //\r\n    function getProposalLimit(uint _pId) public view returns (uint t) { \r\n     t = proposals[_pId].limitTime;\r\n    }\r\n    //\r\n     function toRegist(string memory _name,address _userAddress) public {\r\n           _userAddress=msg.sender;\r\n           uint _Registtime=block.timestamp;\r\n           registuser.push(RegistUser(_name,_userAddress,_Registtime)) ;\r\n           uint _id=registuser.length - 1;\r\n           RegistUserList[_id]=_userAddress;\r\n           RegistCount[_userAddress]++;\r\n          emit Regis(_name,_userAddress,_Registtime,_id);\r\n     }\r\n     //\r\n     function getTxHash(\r\n        uint  _pId,\r\n        string memory _pName,\r\n        string memory _pCtx\r\n    ) public view returns (bytes32) {\r\n        return keccak256(abi.encodePacked(address(this), _pId, _pName, _pCtx));\r\n    }\r\n\r\n   //\r\n    function _checkSigs(uint _pId,bytes memory _sigs, bytes32 _txHash)\r\n        private\r\n        view\r\n        returns (bool)\r\n    {\r\n        bytes32 ethSignedHash = _txHash.toEthSignedMessageHash();\r\n        for (uint i = 0; i < _sigs.length; i++) {\r\n            address signer = ethSignedHash.recover(_sigs);\r\n            bool valid = signer == msg.sender;\r\n            if (!valid) {\r\n                return false;\r\n            }\r\n        }\r\n        return true;\r\n    }\r\n    \r\n     //\r\n    function giveupProsal(uint _pId) external {\r\n        require(proposals[_pId].chairperson == msg.sender);\r\n        address a=0x0000000000000000000000000000000000000000;\r\n         proposals[_pId].pName=\"null\";\r\n         proposals[_pId].pCtx=\"null\";\r\n         proposals[_pId].chairperson=a;\r\n         proposals[_pId].voteCount=0;\r\n         proposals[_pId].initialized=false;\r\n         proposals[_pId].limitTime=0;\r\n    }\r\n}\r\n",
  "sourcePath": "C:\\Users\\y\\Desktop\\work2\\truffle\\contracts\\voting.sol",
  "compiler": {
    "name": "solc",
    "version": "0.8.4+commit.c7e474f2.Emscripten.clang"
  },
  "schemaVersion": "3.4.3",
  "updatedAt": "2021-11-28T04:58:23.131Z",
  "devdoc": {
    "kind": "dev",
    "methods": {},
    "version": 1
  },
  "userdoc": {
    "kind": "user",
    "methods": {},
    "version": 1
  }
}