{
  "contractName": "EthVoting_ygh",
  "abi": [
    {
      "anonymous": false,
      "inputs": [
        {
          "indexed": true,
          "internalType": "string",
          "name": "eventType",
          "type": "string"
        },
        {
          "indexed": false,
          "internalType": "uint256",
          "name": "_proposalId",
          "type": "uint256"
        },
        {
          "indexed": false,
          "internalType": "uint256",
          "name": "_limitTime",
          "type": "uint256"
        },
        {
          "indexed": false,
          "internalType": "bytes32",
          "name": "PHash",
          "type": "bytes32"
        }
      ],
      "name": "ProposeEvt_ygh",
      "type": "event"
    },
    {
      "anonymous": false,
      "inputs": [
        {
          "indexed": true,
          "internalType": "string",
          "name": "eventType",
          "type": "string"
        },
        {
          "indexed": false,
          "internalType": "address",
          "name": "_voter",
          "type": "address"
        },
        {
          "indexed": false,
          "internalType": "uint256",
          "name": "timestamp",
          "type": "uint256"
        }
      ],
      "name": "VoteEvt_ygh",
      "type": "event"
    },
    {
      "inputs": [
        {
          "internalType": "uint256",
          "name": "",
          "type": "uint256"
        }
      ],
      "name": "proposals_ygh",
      "outputs": [
        {
          "internalType": "string",
          "name": "pName",
          "type": "string"
        },
        {
          "internalType": "string",
          "name": "pCtx",
          "type": "string"
        },
        {
          "internalType": "address",
          "name": "chairperson",
          "type": "address"
        },
        {
          "internalType": "uint256",
          "name": "voteCount",
          "type": "uint256"
        },
        {
          "internalType": "bool",
          "name": "initialized",
          "type": "bool"
        },
        {
          "internalType": "uint256",
          "name": "limitTime",
          "type": "uint256"
        }
      ],
      "stateMutability": "view",
      "type": "function",
      "constant": true
    },
    {
      "inputs": [
        {
          "internalType": "string",
          "name": "_pName",
          "type": "string"
        },
        {
          "internalType": "string",
          "name": "_pCtx",
          "type": "string"
        },
        {
          "internalType": "uint256",
          "name": "_limitTime",
          "type": "uint256"
        }
      ],
      "name": "createProposal",
      "outputs": [
        {
          "internalType": "uint256",
          "name": "",
          "type": "uint256"
        }
      ],
      "stateMutability": "nonpayable",
      "type": "function"
    },
    {
      "inputs": [],
      "name": "getPID",
      "outputs": [
        {
          "internalType": "uint256",
          "name": "",
          "type": "uint256"
        }
      ],
      "stateMutability": "view",
      "type": "function",
      "constant": true
    },
    {
      "inputs": [
        {
          "internalType": "uint256",
          "name": "_pId",
          "type": "uint256"
        },
        {
          "internalType": "bytes32",
          "name": "_PHash",
          "type": "bytes32"
        },
        {
          "internalType": "bytes",
          "name": "_sigs",
          "type": "bytes"
        }
      ],
      "name": "doVoting",
      "outputs": [],
      "stateMutability": "nonpayable",
      "type": "function"
    },
    {
      "inputs": [
        {
          "internalType": "uint256",
          "name": "_pId",
          "type": "uint256"
        },
        {
          "internalType": "address",
          "name": "voterAddr",
          "type": "address"
        }
      ],
      "name": "queryVoting",
      "outputs": [
        {
          "internalType": "uint256",
          "name": "",
          "type": "uint256"
        }
      ],
      "stateMutability": "view",
      "type": "function",
      "constant": true
    },
    {
      "inputs": [],
      "name": "getBlockTime",
      "outputs": [
        {
          "internalType": "uint256",
          "name": "",
          "type": "uint256"
        }
      ],
      "stateMutability": "view",
      "type": "function",
      "constant": true
    },
    {
      "inputs": [
        {
          "internalType": "uint256",
          "name": "_pId",
          "type": "uint256"
        }
      ],
      "name": "getProposalName",
      "outputs": [
        {
          "internalType": "string",
          "name": "s",
          "type": "string"
        }
      ],
      "stateMutability": "view",
      "type": "function",
      "constant": true
    },
    {
      "inputs": [
        {
          "internalType": "uint256",
          "name": "_pId",
          "type": "uint256"
        }
      ],
      "name": "getProposalCtx",
      "outputs": [
        {
          "internalType": "string",
          "name": "s",
          "type": "string"
        }
      ],
      "stateMutability": "view",
      "type": "function",
      "constant": true
    },
    {
      "inputs": [
        {
          "internalType": "uint256",
          "name": "_pId",
          "type": "uint256"
        }
      ],
      "name": "getProposalVCnt",
      "outputs": [
        {
          "internalType": "uint256",
          "name": "v",
          "type": "uint256"
        }
      ],
      "stateMutability": "view",
      "type": "function",
      "constant": true
    },
    {
      "inputs": [
        {
          "internalType": "uint256",
          "name": "_pId",
          "type": "uint256"
        }
      ],
      "name": "getProposalLimit",
      "outputs": [
        {
          "internalType": "uint256",
          "name": "t",
          "type": "uint256"
        }
      ],
      "stateMutability": "view",
      "type": "function",
      "constant": true
    },
    {
      "inputs": [
        {
          "internalType": "uint256",
          "name": "_pId",
          "type": "uint256"
        },
        {
          "internalType": "string",
          "name": "_pName",
          "type": "string"
        },
        {
          "internalType": "string",
          "name": "_pCtx",
          "type": "string"
        }
      ],
      "name": "getTxHash",
      "outputs": [
        {
          "internalType": "bytes32",
          "name": "",
          "type": "bytes32"
        }
      ],
      "stateMutability": "view",
      "type": "function",
      "constant": true
    },
    {
      "inputs": [
        {
          "internalType": "uint256",
          "name": "_pId",
          "type": "uint256"
        }
      ],
      "name": "giveupProsal",
      "outputs": [],
      "stateMutability": "nonpayable",
      "type": "function"
    },
    {
      "inputs": [],
      "name": "getbalance",
      "outputs": [
        {
          "internalType": "uint256",
          "name": "",
          "type": "uint256"
        }
      ],
      "stateMutability": "view",
      "type": "function",
      "constant": true
    },
    {
      "inputs": [
        {
          "internalType": "address",
          "name": "_address",
          "type": "address"
        }
      ],
      "name": "approve",
      "outputs": [
        {
          "internalType": "bool",
          "name": "",
          "type": "bool"
        }
      ],
      "stateMutability": "nonpayable",
      "type": "function"
    },
    {
      "inputs": [
        {
          "internalType": "address",
          "name": "_useadress",
          "type": "address"
        }
      ],
      "name": "transferFrom",
      "outputs": [],
      "stateMutability": "nonpayable",
      "type": "function"
    }
  ],
  "bytecode": "0x6080604052735b38da6a701c568545dcfcb03fcb875f56beddc4600260006101000a81548173ffffffffffffffffffffffffffffffffffffffff021916908373ffffffffffffffffffffffffffffffffffffffff16021790555073d9145cce52d386f254917e481eb44e9943f39138600360006101000a81548173ffffffffffffffffffffffffffffffffffffffff021916908373ffffffffffffffffffffffffffffffffffffffff1602179055503480156100ba57600080fd5b506121e2806100ca6000396000f3fe608060405234801561001057600080fd5b50600436106100f55760003560e01c80633fb43064116100975780636f2a064c116100665780636f2a064c146102c357806387ceff09146102f3578063daea85c514610311578063e475949314610341576100f5565b80633fb4306414610224578063414d21e414610240578063429b92bf146102755780634d9b3d5d146102a5576100f5565b80632cd18466116100d35780632cd184661461017857806333311aee146101945780633c795afc146101c45780633c81a9bd146101f4576100f5565b80630ce0ebf4146100fa578063101778d41461012a5780632c5ee5011461015a575b600080fd5b610114600480360381019061010f9190611491565b61035d565b6040516101219190611ddf565b60405180910390f35b610144600480360381019061013f9190611510565b610490565b6040516101519190611ddf565b60405180910390f35b6101626104af565b60405161016f9190611ddf565b60405180910390f35b610192600480360381019061018d919061159e565b6104b9565b005b6101ae60048036038101906101a99190611510565b610790565b6040516101bb9190611c4e565b60405180910390f35b6101de60048036038101906101d99190611562565b610837565b6040516101eb9190611ddf565b60405180910390f35b61020e60048036038101906102099190611605565b610900565b60405161021b9190611bee565b60405180910390f35b61023e60048036038101906102399190611510565b610938565b005b61025a60048036038101906102559190611510565b610b21565b60405161026c96959493929190611c70565b60405180910390f35b61028f600480360381019061028a9190611510565b610c9a565b60405161029c9190611c4e565b60405180910390f35b6102ad610d41565b6040516102ba9190611ddf565b60405180910390f35b6102dd60048036038101906102d89190611510565b610df3565b6040516102ea9190611ddf565b60405180910390f35b6102fb610e12565b6040516103089190611ddf565b60405180910390f35b61032b6004803603810190610326919061143f565b610e1a565b6040516103389190611bd3565b60405180910390f35b61035b6004803603810190610356919061143f565b610ed6565b005b600080429050806001819055506000806000838152602001908152602001600020905085816000019080519060200190610398929190611263565b50848160010190805190602001906103b1929190611263565b50338160020160006101000a81548173ffffffffffffffffffffffffffffffffffffffff021916908373ffffffffffffffffffffffffffffffffffffffff16021790555060018160040160006101000a81548160ff021916908315150217905550838160050181905550600081600301819055506000610432838888610900565b905060405161044090611b1a565b60405180910390207f8b16e196e5461193b26ab5e943ec2c40c703f0669d576e58fcc1ea7bfd9cc18b84878460405161047b93929190611dfa565b60405180910390a28293505050509392505050565b6000806000838152602001908152602001600020600301549050919050565b6000600154905090565b6104c38183610fae565b610502576040517f08c379a00000000000000000000000000000000000000000000000000000000081526004016104f990611d1f565b60405180910390fd5b6000151560008085815260200190815260200160002060040160009054906101000a900460ff161515141561056c576040517f08c379a000000000000000000000000000000000000000000000000000000000815260040161056390611d7f565b60405180910390fd5b6000429050806000808681526020019081526020016000206005015410156105c9576040517f08c379a00000000000000000000000000000000000000000000000000000000081526004016105c090611d5f565b60405180910390fd5b6001151560008086815260200190815260200160002060060160003373ffffffffffffffffffffffffffffffffffffffff1673ffffffffffffffffffffffffffffffffffffffff16815260200190815260200160002060010160009054906101000a900460ff1615151415610673576040517f08c379a000000000000000000000000000000000000000000000000000000000815260040161066a90611dbf565b60405180910390fd5b600060405180604001604052804281526020016001151581525090508060008087815260200190815260200160002060060160003373ffffffffffffffffffffffffffffffffffffffff1673ffffffffffffffffffffffffffffffffffffffff1681526020019081526020016000206000820151816000015560208201518160010160006101000a81548160ff021916908315150217905550905050600160008087815260200190815260200160002060030160008282546107359190611ee9565b9250508190555060405161074890611adf565b60405180910390207f71beae0dca30494b368675d2b4023caa043e12dc99cb43d41ffd22ab5cef01a53342604051610781929190611baa565b60405180910390a25050505050565b606060008083815260200190815260200160002060010180546107b290611ff2565b80601f01602080910402602001604051908101604052809291908181526020018280546107de90611ff2565b801561082b5780601f106108005761010080835404028352916020019161082b565b820191906000526020600020905b81548152906001019060200180831161080e57829003601f168201915b50505050509050919050565b600080151560008085815260200190815260200160002060040160009054906101000a900460ff16151514156108a2576040517f08c379a000000000000000000000000000000000000000000000000000000000815260040161089990611d7f565b60405180910390fd5b60008084815260200190815260200160002060060160008373ffffffffffffffffffffffffffffffffffffffff1673ffffffffffffffffffffffffffffffffffffffff16815260200190815260200160002060000154905092915050565b6000308484846040516020016109199493929190611a99565b6040516020818303038152906040528051906020012090509392505050565b3373ffffffffffffffffffffffffffffffffffffffff1660008083815260200190815260200160002060020160009054906101000a900473ffffffffffffffffffffffffffffffffffffffff1673ffffffffffffffffffffffffffffffffffffffff16146109a557600080fd5b60006040518060400160405280600481526020017f6e756c6c000000000000000000000000000000000000000000000000000000008152506000808481526020019081526020016000206000019080519060200190610a05929190611263565b506040518060400160405280600481526020017f6e756c6c000000000000000000000000000000000000000000000000000000008152506000808481526020019081526020016000206001019080519060200190610a64929190611263565b508060008084815260200190815260200160002060020160006101000a81548173ffffffffffffffffffffffffffffffffffffffff021916908373ffffffffffffffffffffffffffffffffffffffff160217905550600080600084815260200190815260200160002060030181905550600080600084815260200190815260200160002060040160006101000a81548160ff0219169083151502179055506000806000848152602001908152602001600020600501819055505050565b6000602052806000526040600020600091509050806000018054610b4490611ff2565b80601f0160208091040260200160405190810160405280929190818152602001828054610b7090611ff2565b8015610bbd5780601f10610b9257610100808354040283529160200191610bbd565b820191906000526020600020905b815481529060010190602001808311610ba057829003601f168201915b505050505090806001018054610bd290611ff2565b80601f0160208091040260200160405190810160405280929190818152602001828054610bfe90611ff2565b8015610c4b5780601f10610c2057610100808354040283529160200191610c4b565b820191906000526020600020905b815481529060010190602001808311610c2e57829003601f168201915b5050505050908060020160009054906101000a900473ffffffffffffffffffffffffffffffffffffffff16908060030154908060040160009054906101000a900460ff16908060050154905086565b60606000808381526020019081526020016000206000018054610cbc90611ff2565b80601f0160208091040260200160405190810160405280929190818152602001828054610ce890611ff2565b8015610d355780601f10610d0a57610100808354040283529160200191610d35565b820191906000526020600020905b815481529060010190602001808311610d1857829003601f168201915b50505050509050919050565b6000600360009054906101000a900473ffffffffffffffffffffffffffffffffffffffff1673ffffffffffffffffffffffffffffffffffffffff166370a08231336040518263ffffffff1660e01b8152600401610d9e9190611b2f565b60206040518083038186803b158015610db657600080fd5b505afa158015610dca573d6000803e3d6000fd5b505050506040513d601f19601f82011682018060405250810190610dee9190611539565b905090565b6000806000838152602001908152602001600020600501549050919050565b600042905090565b6000600360009054906101000a900473ffffffffffffffffffffffffffffffffffffffff1673ffffffffffffffffffffffffffffffffffffffff1663095ea7b383600a6040518363ffffffff1660e01b8152600401610e7a929190611b81565b602060405180830381600087803b158015610e9457600080fd5b505af1158015610ea8573d6000803e3d6000fd5b505050506040513d601f19601f82011682018060405250810190610ecc9190611468565b5060019050919050565b600360009054906101000a900473ffffffffffffffffffffffffffffffffffffffff1673ffffffffffffffffffffffffffffffffffffffff166323b872dd600260009054906101000a900473ffffffffffffffffffffffffffffffffffffffff1683600a6040518463ffffffff1660e01b8152600401610f5893929190611b4a565b602060405180830381600087803b158015610f7257600080fd5b505af1158015610f86573d6000803e3d6000fd5b505050506040513d601f19601f82011682018060405250810190610faa9190611468565b5050565b600080610fba83611046565b905060005b8451811015611039576000610fdd868461107690919063ffffffff16565b905060003373ffffffffffffffffffffffffffffffffffffffff168273ffffffffffffffffffffffffffffffffffffffff1614905080611024576000945050505050611040565b5050808061103190612024565b915050610fbf565b5060019150505b92915050565b6000816040516020016110599190611af4565b604051602081830303815290604052805190602001209050919050565b600060418251146110bc576040517f08c379a00000000000000000000000000000000000000000000000000000000081526004016110b390611cff565b60405180910390fd5b60008060006020850151925060408501519150606085015160001a90507f7fffffffffffffffffffffffffffffff5d576e7357a4501ddfe92f46681b20a08260001c111561113f576040517f08c379a000000000000000000000000000000000000000000000000000000000815260040161113690611d3f565b60405180910390fd5b601b8160ff1614806111545750601c8160ff16145b611193576040517f08c379a000000000000000000000000000000000000000000000000000000000815260040161118a90611d9f565b60405180910390fd5b6000600187838686604051600081526020016040526040516111b89493929190611c09565b6020604051602081039080840390855afa1580156111da573d6000803e3d6000fd5b505050602060405103519050600073ffffffffffffffffffffffffffffffffffffffff168173ffffffffffffffffffffffffffffffffffffffff161415611256576040517f08c379a000000000000000000000000000000000000000000000000000000000815260040161124d90611cdf565b60405180910390fd5b8094505050505092915050565b82805461126f90611ff2565b90600052602060002090601f01602090048101928261129157600085556112d8565b82601f106112aa57805160ff19168380011785556112d8565b828001600101855582156112d8579182015b828111156112d75782518255916020019190600101906112bc565b5b5090506112e591906112e9565b5090565b5b808211156113025760008160009055506001016112ea565b5090565b600061131961131484611e62565b611e31565b90508281526020810184848401111561133157600080fd5b61133c848285611fb0565b509392505050565b600061135761135284611e92565b611e31565b90508281526020810184848401111561136f57600080fd5b61137a848285611fb0565b509392505050565b60008135905061139181612150565b92915050565b6000815190506113a681612167565b92915050565b6000813590506113bb8161217e565b92915050565b600082601f8301126113d257600080fd5b81356113e2848260208601611306565b91505092915050565b600082601f8301126113fc57600080fd5b813561140c848260208601611344565b91505092915050565b60008135905061142481612195565b92915050565b60008151905061143981612195565b92915050565b60006020828403121561145157600080fd5b600061145f84828501611382565b91505092915050565b60006020828403121561147a57600080fd5b600061148884828501611397565b91505092915050565b6000806000606084860312156114a657600080fd5b600084013567ffffffffffffffff8111156114c057600080fd5b6114cc868287016113eb565b935050602084013567ffffffffffffffff8111156114e957600080fd5b6114f5868287016113eb565b925050604061150686828701611415565b9150509250925092565b60006020828403121561152257600080fd5b600061153084828501611415565b91505092915050565b60006020828403121561154b57600080fd5b60006115598482850161142a565b91505092915050565b6000806040838503121561157557600080fd5b600061158385828601611415565b925050602061159485828601611382565b9150509250929050565b6000806000606084860312156115b357600080fd5b60006115c186828701611415565b93505060206115d2868287016113ac565b925050604084013567ffffffffffffffff8111156115ef57600080fd5b6115fb868287016113c1565b9150509250925092565b60008060006060848603121561161a57600080fd5b600061162886828701611415565b935050602084013567ffffffffffffffff81111561164557600080fd5b611651868287016113eb565b925050604084013567ffffffffffffffff81111561166e57600080fd5b61167a868287016113eb565b9150509250925092565b61168d81611f3f565b82525050565b6116a461169f82611f3f565b61206d565b82525050565b6116b381611f51565b82525050565b6116c281611f5d565b82525050565b6116d96116d482611f5d565b61207f565b82525050565b6116e881611f9e565b82525050565b60006116f982611ec2565b6117038185611ecd565b9350611713818560208601611fbf565b61171c81612132565b840191505092915050565b600061173282611ec2565b61173c8185611ede565b935061174c818560208601611fbf565b80840191505092915050565b6000611765601883611ecd565b91507f45434453413a20696e76616c6964207369676e617475726500000000000000006000830152602082019050919050565b60006117a5600483611ede565b91507f766f7465000000000000000000000000000000000000000000000000000000006000830152600482019050919050565b60006117e5601f83611ecd565b91507f45434453413a20696e76616c6964207369676e6174757265206c656e677468006000830152602082019050919050565b6000611825601c83611ede565b91507f19457468657265756d205369676e6564204d6573736167653a0a3332000000006000830152601c82019050919050565b6000611865600b83611ecd565b91507f696e76616c6964207369670000000000000000000000000000000000000000006000830152602082019050919050565b60006118a5602283611ecd565b91507f45434453413a20696e76616c6964207369676e6174757265202773272076616c60008301527f75650000000000000000000000000000000000000000000000000000000000006020830152604082019050919050565b600061190b601283611ecd565b91507f65786365656420766f74696e672074696d6500000000000000000000000000006000830152602082019050919050565b600061194b601283611ecd565b91507f70726f706f73616c206e6f7420657869737400000000000000000000000000006000830152602082019050919050565b600061198b602283611ecd565b91507f45434453413a20696e76616c6964207369676e6174757265202776272076616c60008301527f75650000000000000000000000000000000000000000000000000000000000006020830152604082019050919050565b60006119f1600783611ede565b91507f70726f706f7365000000000000000000000000000000000000000000000000006000830152600782019050919050565b6000611a31600c83611ecd565b91507f616c726561647920766f746500000000000000000000000000000000000000006000830152602082019050919050565b611a6d81611f87565b82525050565b611a84611a7f82611f87565b61209b565b82525050565b611a9381611f91565b82525050565b6000611aa58287611693565b601482019150611ab58286611a73565b602082019150611ac58285611727565b9150611ad18284611727565b915081905095945050505050565b6000611aea82611798565b9150819050919050565b6000611aff82611818565b9150611b0b82846116c8565b60208201915081905092915050565b6000611b25826119e4565b9150819050919050565b6000602082019050611b446000830184611684565b92915050565b6000606082019050611b5f6000830186611684565b611b6c6020830185611684565b611b7960408301846116df565b949350505050565b6000604082019050611b966000830185611684565b611ba360208301846116df565b9392505050565b6000604082019050611bbf6000830185611684565b611bcc6020830184611a64565b9392505050565b6000602082019050611be860008301846116aa565b92915050565b6000602082019050611c0360008301846116b9565b92915050565b6000608082019050611c1e60008301876116b9565b611c2b6020830186611a8a565b611c3860408301856116b9565b611c4560608301846116b9565b95945050505050565b60006020820190508181036000830152611c6881846116ee565b905092915050565b600060c0820190508181036000830152611c8a81896116ee565b90508181036020830152611c9e81886116ee565b9050611cad6040830187611684565b611cba6060830186611a64565b611cc760808301856116aa565b611cd460a0830184611a64565b979650505050505050565b60006020820190508181036000830152611cf881611758565b9050919050565b60006020820190508181036000830152611d18816117d8565b9050919050565b60006020820190508181036000830152611d3881611858565b9050919050565b60006020820190508181036000830152611d5881611898565b9050919050565b60006020820190508181036000830152611d78816118fe565b9050919050565b60006020820190508181036000830152611d988161193e565b9050919050565b60006020820190508181036000830152611db88161197e565b9050919050565b60006020820190508181036000830152611dd881611a24565b9050919050565b6000602082019050611df46000830184611a64565b92915050565b6000606082019050611e0f6000830186611a64565b611e1c6020830185611a64565b611e2960408301846116b9565b949350505050565b6000604051905081810181811067ffffffffffffffff82111715611e5857611e57612103565b5b8060405250919050565b600067ffffffffffffffff821115611e7d57611e7c612103565b5b601f19601f8301169050602081019050919050565b600067ffffffffffffffff821115611ead57611eac612103565b5b601f19601f8301169050602081019050919050565b600081519050919050565b600082825260208201905092915050565b600081905092915050565b6000611ef482611f87565b9150611eff83611f87565b9250827fffffffffffffffffffffffffffffffffffffffffffffffffffffffffffffffff03821115611f3457611f336120a5565b5b828201905092915050565b6000611f4a82611f67565b9050919050565b60008115159050919050565b6000819050919050565b600073ffffffffffffffffffffffffffffffffffffffff82169050919050565b6000819050919050565b600060ff82169050919050565b6000611fa982611f87565b9050919050565b82818337600083830152505050565b60005b83811015611fdd578082015181840152602081019050611fc2565b83811115611fec576000848401525b50505050565b6000600282049050600182168061200a57607f821691505b6020821081141561201e5761201d6120d4565b5b50919050565b600061202f82611f87565b91507fffffffffffffffffffffffffffffffffffffffffffffffffffffffffffffffff821415612062576120616120a5565b5b600182019050919050565b600061207882612089565b9050919050565b6000819050919050565b600061209482612143565b9050919050565b6000819050919050565b7f4e487b7100000000000000000000000000000000000000000000000000000000600052601160045260246000fd5b7f4e487b7100000000000000000000000000000000000000000000000000000000600052602260045260246000fd5b7f4e487b7100000000000000000000000000000000000000000000000000000000600052604160045260246000fd5b6000601f19601f8301169050919050565b60008160601b9050919050565b61215981611f3f565b811461216457600080fd5b50565b61217081611f51565b811461217b57600080fd5b50565b61218781611f5d565b811461219257600080fd5b50565b61219e81611f87565b81146121a957600080fd5b5056fea2646970667358221220b600467dacec48b9dad653f10db4f8d2d73e5b93d7d1c6a7168814127dac1c9564736f6c63430008000033",
  "immutableReferences": {},
  "source": "// SPDX-License-Identifier: MIT\r\npragma solidity ^0.8.0;\r\nimport \"./ECDSA.sol\";\r\n//import \"./safemath.sol\";\r\nimport \"./ERC20.sol\";\r\ncontract EthVoting_ygh {\r\n     using ECDSA for bytes32;\r\n    // using SafeMath for uint;\r\n\r\n    //\r\n    struct RegistUser_ygh{\r\n        string usename;\r\n        address userAddress;\r\n        uint registtime;\r\n    }\r\n\r\n    // \r\n    struct Voter_ygh {\r\n        uint voteTimeStamp; //\r\n        bool initialized;   //\r\n    }\r\n   \r\n    //\r\n    struct Proposal_ygh {\r\n        string pName;        //\r\n    \tstring pCtx;         //\r\n    \taddress chairperson; //\r\n        uint voteCount;      //\r\n        bool initialized;    //\r\n        uint limitTime;      //\r\n    \tmapping(address => Voter_ygh) voters; //\r\n    }\r\n   \r\n    \r\n    //\r\n    mapping(uint => Proposal_ygh) public proposals_ygh;\r\n    \r\n    //\r\n    event VoteEvt_ygh(string indexed eventType, address _voter, uint timestamp);\r\n    \r\n    //\r\n    event ProposeEvt_ygh(string indexed eventType, uint _proposalId, uint _limitTime,bytes32 PHash) ;\r\n    \r\n    //\r\n   uint pp;\r\n    function createProposal(string memory _pName, string memory _pCtx, uint _limitTime) public returns (uint){\r\n      //\r\n     uint pId = block.timestamp;\r\n      pp=pId;\r\n      pId=pId;\r\n      Proposal_ygh storage p = proposals_ygh[pId];\r\n      p.pName=_pName;\r\n      p.pCtx=_pCtx;\r\n      p.chairperson=msg.sender;\r\n      p.initialized=true;\r\n      p.limitTime= _limitTime;\r\n      p.voteCount=0;\r\n      bytes32 PHash=getTxHash(pId,_pName,_pCtx);\r\n      emit ProposeEvt_ygh(\"propose\", pId, _limitTime,PHash);\r\n      return pId;\r\n    }\r\n    //pid\r\n    function getPID() public view returns(uint){\r\n     return pp;\r\n   }\r\n    \r\n    //\r\n    function doVoting(uint _pId,bytes32 _PHash,bytes memory _sigs) public {\r\n        //\r\n      require(_checkSigs(_sigs, _PHash), \"invalid sig\");\r\n      //\r\n      if (proposals_ygh[_pId].initialized == false)\r\n        revert(\"proposal not exist\");\r\n        \r\n      uint currentTime = block.timestamp;\r\n      \r\n      //\r\n      if (proposals_ygh[_pId].limitTime < currentTime)\r\n        revert(\"exceed voting time\");\r\n      \r\n      //\r\n      if (proposals_ygh[_pId].voters[msg.sender].initialized == true)\r\n       revert(\"already vote\");\r\n      \r\n      //\r\n      Voter_ygh memory voter = Voter_ygh({\r\n         voteTimeStamp: block.timestamp,\r\n         initialized: true\r\n      });\r\n    \r\n      //\r\n      proposals_ygh[_pId].voters[msg.sender] = voter;\r\n      proposals_ygh[_pId].voteCount+=1;\r\n      \r\n      emit VoteEvt_ygh(\"vote\", msg.sender, block.timestamp);\r\n    }\t\r\n    \r\n    //\r\n    function queryVoting(uint _pId, address voterAddr) public view returns (uint){\r\n      //\r\n      if (proposals_ygh[_pId].initialized == false)\r\n        revert(\"proposal not exist\");\r\n        \r\n      //\r\n      return proposals_ygh[_pId].voters[voterAddr].voteTimeStamp;\r\n    }\t\r\n    \r\n    //\r\n    function getBlockTime() public view returns (uint) { \r\n     return block.timestamp;\r\n    }\r\n\r\n    //\r\n    function getProposalName(uint _pId) public view returns (string memory s) { \r\n     s = proposals_ygh[_pId].pName;\r\n    } \t\r\n    \r\n    //\r\n    function getProposalCtx(uint _pId) public view returns (string memory s) { \r\n     s = proposals_ygh[_pId].pCtx;\r\n    }\r\n    \r\n    //\r\n    function getProposalVCnt(uint _pId) public view returns (uint v) { \r\n     v = proposals_ygh[_pId].voteCount;\r\n    }\r\n    \r\n    //\r\n    function getProposalLimit(uint _pId) public view returns (uint t) { \r\n     t = proposals_ygh[_pId].limitTime;\r\n    }\r\n     //\r\n     function getTxHash(\r\n        uint  _pId,\r\n        string memory _pName,\r\n        string memory _pCtx\r\n    ) public view returns (bytes32) {\r\n        return keccak256(abi.encodePacked(address(this), _pId, _pName, _pCtx));\r\n    }\r\n\r\n   //\r\n    function _checkSigs(bytes memory _sigs, bytes32 _txHash)\r\n        private\r\n        view\r\n        returns (bool)\r\n    {\r\n        bytes32 ethSignedHash = _txHash.toEthSignedMessageHash();\r\n        for (uint i = 0; i < _sigs.length; i++) {\r\n            address signer = ethSignedHash.recover(_sigs);\r\n            bool valid = signer == msg.sender;\r\n            if (!valid) {\r\n                return false;\r\n            }\r\n        }\r\n        return true;\r\n    }\r\n    \r\n     //\r\n    function giveupProsal(uint _pId) external {\r\n        require(proposals_ygh[_pId].chairperson == msg.sender);\r\n        address a=0x0000000000000000000000000000000000000000;\r\n         proposals_ygh[_pId].pName=\"null\";\r\n         proposals_ygh[_pId].pCtx=\"null\";\r\n         proposals_ygh[_pId].chairperson=a;\r\n         proposals_ygh[_pId].voteCount=0;\r\n         proposals_ygh[_pId].initialized=false;\r\n         proposals_ygh[_pId].limitTime=0;\r\n    }\r\n\r\n    //erc20\r\n    address admin_ygh=0x5B38Da6a701c568545dCfcB03FcB875f56beddC4;\r\n    address token_ygh=0xd9145CCE52D386f254917e481eB44e9943F39138;\r\n\r\n    function getbalance() public view returns(uint){\r\n      return (ERC20(token_ygh).balanceOf(msg.sender));\r\n    }\r\n\r\n    function approve(address _address)public returns(bool){\r\n        ERC20(token_ygh).approve(_address,10);\r\n        return true;\r\n    }\r\n    \r\n    function transferFrom(address _useadress)public {\r\n        ERC20(token_ygh).transferFrom(admin_ygh,_useadress,10);\r\n        }  \r\n}\r\n",
  "sourcePath": "C:\\Users\\y\\Desktop\\work2\\truffle\\contracts\\voting.sol",
  "compiler": {
    "name": "solc",
    "version": "0.8.0+commit.c7dfd78e.Emscripten.clang"
  },
  "schemaVersion": "3.4.3",
  "updatedAt": "2021-12-13T04:02:56.003Z",
  "networkType": "ethereum",
  "devdoc": {
    "kind": "dev",
    "methods": {},
    "version": 1
  },
  "userdoc": {
    "kind": "user",
    "methods": {},
    "version": 1
  }
}